{
  "_format": "hh-sol-artifact-1",
  "contractName": "RarePumpkin",
  "sourceName": "contracts/RarePumpkin.sol",
  "abi": [
    {
      "inputs": [
        {
          "internalType": "string",
          "name": "_baseURI",
          "type": "string"
        }
      ],
      "stateMutability": "nonpayable",
      "type": "constructor"
    },
    {
      "inputs": [
        {
          "internalType": "address",
          "name": "sender",
          "type": "address"
        },
        {
          "internalType": "uint256",
          "name": "tokenId",
          "type": "uint256"
        },
        {
          "internalType": "address",
          "name": "owner",
          "type": "address"
        }
      ],
      "name": "ERC721IncorrectOwner",
      "type": "error"
    },
    {
      "inputs": [
        {
          "internalType": "address",
          "name": "operator",
          "type": "address"
        },
        {
          "internalType": "uint256",
          "name": "tokenId",
          "type": "uint256"
        }
      ],
      "name": "ERC721InsufficientApproval",
      "type": "error"
    },
    {
      "inputs": [
        {
          "internalType": "address",
          "name": "approver",
          "type": "address"
        }
      ],
      "name": "ERC721InvalidApprover",
      "type": "error"
    },
    {
      "inputs": [
        {
          "internalType": "address",
          "name": "operator",
          "type": "address"
        }
      ],
      "name": "ERC721InvalidOperator",
      "type": "error"
    },
    {
      "inputs": [
        {
          "internalType": "address",
          "name": "owner",
          "type": "address"
        }
      ],
      "name": "ERC721InvalidOwner",
      "type": "error"
    },
    {
      "inputs": [
        {
          "internalType": "address",
          "name": "receiver",
          "type": "address"
        }
      ],
      "name": "ERC721InvalidReceiver",
      "type": "error"
    },
    {
      "inputs": [
        {
          "internalType": "address",
          "name": "sender",
          "type": "address"
        }
      ],
      "name": "ERC721InvalidSender",
      "type": "error"
    },
    {
      "inputs": [
        {
          "internalType": "uint256",
          "name": "tokenId",
          "type": "uint256"
        }
      ],
      "name": "ERC721NonexistentToken",
      "type": "error"
    },
    {
      "inputs": [
        {
          "internalType": "address",
          "name": "owner",
          "type": "address"
        }
      ],
      "name": "OwnableInvalidOwner",
      "type": "error"
    },
    {
      "inputs": [
        {
          "internalType": "address",
          "name": "account",
          "type": "address"
        }
      ],
      "name": "OwnableUnauthorizedAccount",
      "type": "error"
    },
    {
      "anonymous": false,
      "inputs": [
        {
          "indexed": true,
          "internalType": "address",
          "name": "owner",
          "type": "address"
        },
        {
          "indexed": true,
          "internalType": "address",
          "name": "approved",
          "type": "address"
        },
        {
          "indexed": true,
          "internalType": "uint256",
          "name": "tokenId",
          "type": "uint256"
        }
      ],
      "name": "Approval",
      "type": "event"
    },
    {
      "anonymous": false,
      "inputs": [
        {
          "indexed": true,
          "internalType": "address",
          "name": "owner",
          "type": "address"
        },
        {
          "indexed": true,
          "internalType": "address",
          "name": "operator",
          "type": "address"
        },
        {
          "indexed": false,
          "internalType": "bool",
          "name": "approved",
          "type": "bool"
        }
      ],
      "name": "ApprovalForAll",
      "type": "event"
    },
    {
      "anonymous": false,
      "inputs": [
        {
          "indexed": true,
          "internalType": "address",
          "name": "previousOwner",
          "type": "address"
        },
        {
          "indexed": true,
          "internalType": "address",
          "name": "newOwner",
          "type": "address"
        }
      ],
      "name": "OwnershipTransferred",
      "type": "event"
    },
    {
      "anonymous": false,
      "inputs": [
        {
          "indexed": true,
          "internalType": "address",
          "name": "from",
          "type": "address"
        },
        {
          "indexed": true,
          "internalType": "address",
          "name": "to",
          "type": "address"
        },
        {
          "indexed": true,
          "internalType": "uint256",
          "name": "tokenId",
          "type": "uint256"
        }
      ],
      "name": "Transfer",
      "type": "event"
    },
    {
      "inputs": [
        {
          "internalType": "address",
          "name": "to",
          "type": "address"
        },
        {
          "internalType": "uint256",
          "name": "tokenId",
          "type": "uint256"
        }
      ],
      "name": "approve",
      "outputs": [],
      "stateMutability": "nonpayable",
      "type": "function"
    },
    {
      "inputs": [
        {
          "internalType": "address",
          "name": "owner",
          "type": "address"
        }
      ],
      "name": "balanceOf",
      "outputs": [
        {
          "internalType": "uint256",
          "name": "",
          "type": "uint256"
        }
      ],
      "stateMutability": "view",
      "type": "function"
    },
    {
      "inputs": [
        {
          "internalType": "uint256",
          "name": "tokenId",
          "type": "uint256"
        }
      ],
      "name": "getApproved",
      "outputs": [
        {
          "internalType": "address",
          "name": "",
          "type": "address"
        }
      ],
      "stateMutability": "view",
      "type": "function"
    },
    {
      "inputs": [
        {
          "internalType": "address",
          "name": "owner",
          "type": "address"
        },
        {
          "internalType": "address",
          "name": "operator",
          "type": "address"
        }
      ],
      "name": "isApprovedForAll",
      "outputs": [
        {
          "internalType": "bool",
          "name": "",
          "type": "bool"
        }
      ],
      "stateMutability": "view",
      "type": "function"
    },
    {
      "inputs": [
        {
          "internalType": "address",
          "name": "to",
          "type": "address"
        }
      ],
      "name": "mintRarePumpkin",
      "outputs": [],
      "stateMutability": "nonpayable",
      "type": "function"
    },
    {
      "inputs": [],
      "name": "name",
      "outputs": [
        {
          "internalType": "string",
          "name": "",
          "type": "string"
        }
      ],
      "stateMutability": "view",
      "type": "function"
    },
    {
      "inputs": [],
      "name": "nextTokenId",
      "outputs": [
        {
          "internalType": "uint256",
          "name": "",
          "type": "uint256"
        }
      ],
      "stateMutability": "view",
      "type": "function"
    },
    {
      "inputs": [],
      "name": "owner",
      "outputs": [
        {
          "internalType": "address",
          "name": "",
          "type": "address"
        }
      ],
      "stateMutability": "view",
      "type": "function"
    },
    {
      "inputs": [
        {
          "internalType": "uint256",
          "name": "tokenId",
          "type": "uint256"
        }
      ],
      "name": "ownerOf",
      "outputs": [
        {
          "internalType": "address",
          "name": "",
          "type": "address"
        }
      ],
      "stateMutability": "view",
      "type": "function"
    },
    {
      "inputs": [],
      "name": "renounceOwnership",
      "outputs": [],
      "stateMutability": "nonpayable",
      "type": "function"
    },
    {
      "inputs": [
        {
          "internalType": "address",
          "name": "from",
          "type": "address"
        },
        {
          "internalType": "address",
          "name": "to",
          "type": "address"
        },
        {
          "internalType": "uint256",
          "name": "tokenId",
          "type": "uint256"
        }
      ],
      "name": "safeTransferFrom",
      "outputs": [],
      "stateMutability": "nonpayable",
      "type": "function"
    },
    {
      "inputs": [
        {
          "internalType": "address",
          "name": "from",
          "type": "address"
        },
        {
          "internalType": "address",
          "name": "to",
          "type": "address"
        },
        {
          "internalType": "uint256",
          "name": "tokenId",
          "type": "uint256"
        },
        {
          "internalType": "bytes",
          "name": "data",
          "type": "bytes"
        }
      ],
      "name": "safeTransferFrom",
      "outputs": [],
      "stateMutability": "nonpayable",
      "type": "function"
    },
    {
      "inputs": [
        {
          "internalType": "address",
          "name": "operator",
          "type": "address"
        },
        {
          "internalType": "bool",
          "name": "approved",
          "type": "bool"
        }
      ],
      "name": "setApprovalForAll",
      "outputs": [],
      "stateMutability": "nonpayable",
      "type": "function"
    },
    {
      "inputs": [
        {
          "internalType": "bytes4",
          "name": "interfaceId",
          "type": "bytes4"
        }
      ],
      "name": "supportsInterface",
      "outputs": [
        {
          "internalType": "bool",
          "name": "",
          "type": "bool"
        }
      ],
      "stateMutability": "view",
      "type": "function"
    },
    {
      "inputs": [],
      "name": "symbol",
      "outputs": [
        {
          "internalType": "string",
          "name": "",
          "type": "string"
        }
      ],
      "stateMutability": "view",
      "type": "function"
    },
    {
      "inputs": [
        {
          "internalType": "uint256",
          "name": "tokenId",
          "type": "uint256"
        }
      ],
      "name": "tokenURI",
      "outputs": [
        {
          "internalType": "string",
          "name": "",
          "type": "string"
        }
      ],
      "stateMutability": "view",
      "type": "function"
    },
    {
      "inputs": [
        {
          "internalType": "address",
          "name": "from",
          "type": "address"
        },
        {
          "internalType": "address",
          "name": "to",
          "type": "address"
        },
        {
          "internalType": "uint256",
          "name": "tokenId",
          "type": "uint256"
        }
      ],
      "name": "transferFrom",
      "outputs": [],
      "stateMutability": "nonpayable",
      "type": "function"
    },
    {
      "inputs": [
        {
          "internalType": "address",
          "name": "newOwner",
          "type": "address"
        }
      ],
      "name": "transferOwnership",
      "outputs": [],
      "stateMutability": "nonpayable",
      "type": "function"
    }
  ],
  "bytecode": "0x608060405234801561001057600080fd5b50604051612a02380380612a0283398181016040528101906100329190610394565b336040518060400160405280600c81526020017f526172652050756d706b696e00000000000000000000000000000000000000008152506040518060400160405280600581526020017f5250554d5000000000000000000000000000000000000000000000000000000081525081600090816100ae91906105fe565b5080600190816100be91906105fe565b505050600073ffffffffffffffffffffffffffffffffffffffff168173ffffffffffffffffffffffffffffffffffffffff16036101335760006040517f1e4fbdf700000000000000000000000000000000000000000000000000000000815260040161012a9190610711565b60405180910390fd5b6101428161015960201b60201c565b50806008908161015291906105fe565b505061072c565b6000600660009054906101000a900473ffffffffffffffffffffffffffffffffffffffff16905081600660006101000a81548173ffffffffffffffffffffffffffffffffffffffff021916908373ffffffffffffffffffffffffffffffffffffffff1602179055508173ffffffffffffffffffffffffffffffffffffffff168173ffffffffffffffffffffffffffffffffffffffff167f8be0079c531659141344cd1fd0a4f28419497f9722a3daafe3b4186f6b6457e060405160405180910390a35050565b6000604051905090565b600080fd5b600080fd5b600080fd5b600080fd5b6000601f19601f8301169050919050565b7f4e487b7100000000000000000000000000000000000000000000000000000000600052604160045260246000fd5b6102868261023d565b810181811067ffffffffffffffff821117156102a5576102a461024e565b5b80604052505050565b60006102b861021f565b90506102c4828261027d565b919050565b600067ffffffffffffffff8211156102e4576102e361024e565b5b6102ed8261023d565b9050602081019050919050565b60005b838110156103185780820151818401526020810190506102fd565b60008484015250505050565b6000610337610332846102c9565b6102ae565b90508281526020810184848401111561035357610352610238565b5b61035e8482856102fa565b509392505050565b600082601f83011261037b5761037a610233565b5b815161038b848260208601610324565b91505092915050565b6000602082840312156103aa576103a9610229565b5b600082015167ffffffffffffffff8111156103c8576103c761022e565b5b6103d484828501610366565b91505092915050565b600081519050919050565b7f4e487b7100000000000000000000000000000000000000000000000000000000600052602260045260246000fd5b6000600282049050600182168061042f57607f821691505b602082108103610442576104416103e8565b5b50919050565b60008190508160005260206000209050919050565b60006020601f8301049050919050565b600082821b905092915050565b6000600883026104aa7fffffffffffffffffffffffffffffffffffffffffffffffffffffffffffffffff8261046d565b6104b4868361046d565b95508019841693508086168417925050509392505050565b6000819050919050565b6000819050919050565b60006104fb6104f66104f1846104cc565b6104d6565b6104cc565b9050919050565b6000819050919050565b610515836104e0565b61052961052182610502565b84845461047a565b825550505050565b600090565b61053e610531565b61054981848461050c565b505050565b5b8181101561056d57610562600082610536565b60018101905061054f565b5050565b601f8211156105b25761058381610448565b61058c8461045d565b8101602085101561059b578190505b6105af6105a78561045d565b83018261054e565b50505b505050565b600082821c905092915050565b60006105d5600019846008026105b7565b1980831691505092915050565b60006105ee83836105c4565b9150826002028217905092915050565b610607826103dd565b67ffffffffffffffff8111156106205761061f61024e565b5b61062a8254610417565b610635828285610571565b600060209050601f8311600181146106685760008415610656578287015190505b61066085826105e2565b8655506106c8565b601f19841661067686610448565b60005b8281101561069e57848901518255600182019150602085019450602081019050610679565b868310156106bb57848901516106b7601f8916826105c4565b8355505b6001600288020188555050505b505050505050565b600073ffffffffffffffffffffffffffffffffffffffff82169050919050565b60006106fb826106d0565b9050919050565b61070b816106f0565b82525050565b60006020820190506107266000830184610702565b92915050565b6122c78061073b6000396000f3fe608060405234801561001057600080fd5b50600436106101165760003560e01c8063715018a6116100a2578063a22cb46511610071578063a22cb465146102cd578063b88d4fde146102e9578063c87b56dd14610305578063e985e9c514610335578063f2fde38b1461036557610116565b8063715018a61461026957806375794a3c146102735780638da5cb5b1461029157806395d89b41146102af57610116565b8063095ea7b3116100e9578063095ea7b3146101b557806323b872dd146101d157806342842e0e146101ed5780636352211e1461020957806370a082311461023957610116565b806301ffc9a71461011b57806303ddc14d1461014b57806306fdde0314610167578063081812fc14610185575b600080fd5b6101356004803603810190610130919061193f565b610381565b6040516101429190611987565b60405180910390f35b61016560048036038101906101609190611a00565b610463565b005b61016f610498565b60405161017c9190611abd565b60405180910390f35b61019f600480360381019061019a9190611b15565b61052a565b6040516101ac9190611b51565b60405180910390f35b6101cf60048036038101906101ca9190611b6c565b610546565b005b6101eb60048036038101906101e69190611bac565b61055c565b005b61020760048036038101906102029190611bac565b61065e565b005b610223600480360381019061021e9190611b15565b61067e565b6040516102309190611b51565b60405180910390f35b610253600480360381019061024e9190611a00565b610690565b6040516102609190611c0e565b60405180910390f35b61027161074a565b005b61027b61075e565b6040516102889190611c0e565b60405180910390f35b610299610764565b6040516102a69190611b51565b60405180910390f35b6102b761078e565b6040516102c49190611abd565b60405180910390f35b6102e760048036038101906102e29190611c55565b610820565b005b61030360048036038101906102fe9190611dca565b610836565b005b61031f600480360381019061031a9190611b15565b61085b565b60405161032c9190611abd565b60405180910390f35b61034f600480360381019061034a9190611e4d565b610906565b60405161035c9190611987565b60405180910390f35b61037f600480360381019061037a9190611a00565b61099a565b005b60007f80ac58cd000000000000000000000000000000000000000000000000000000007bffffffffffffffffffffffffffffffffffffffffffffffffffffffff1916827bffffffffffffffffffffffffffffffffffffffffffffffffffffffff1916148061044c57507f5b5e139f000000000000000000000000000000000000000000000000000000007bffffffffffffffffffffffffffffffffffffffffffffffffffffffff1916827bffffffffffffffffffffffffffffffffffffffffffffffffffffffff1916145b8061045c575061045b82610a20565b5b9050919050565b61046b610a8a565b600060075490506007600081548092919061048590611ebc565b91905055506104948282610b11565b5050565b6060600080546104a790611f33565b80601f01602080910402602001604051908101604052809291908181526020018280546104d390611f33565b80156105205780601f106104f557610100808354040283529160200191610520565b820191906000526020600020905b81548152906001019060200180831161050357829003601f168201915b5050505050905090565b600061053582610b2f565b5061053f82610bb7565b9050919050565b6105588282610553610bf4565b610bfc565b5050565b600073ffffffffffffffffffffffffffffffffffffffff168273ffffffffffffffffffffffffffffffffffffffff16036105ce5760006040517f64a0ae920000000000000000000000000000000000000000000000000000000081526004016105c59190611b51565b60405180910390fd5b60006105e283836105dd610bf4565b610c0e565b90508373ffffffffffffffffffffffffffffffffffffffff168173ffffffffffffffffffffffffffffffffffffffff1614610658578382826040517f64283d7b00000000000000000000000000000000000000000000000000000000815260040161064f93929190611f64565b60405180910390fd5b50505050565b61067983838360405180602001604052806000815250610836565b505050565b600061068982610b2f565b9050919050565b60008073ffffffffffffffffffffffffffffffffffffffff168273ffffffffffffffffffffffffffffffffffffffff16036107035760006040517f89c62b640000000000000000000000000000000000000000000000000000000081526004016106fa9190611b51565b60405180910390fd5b600360008373ffffffffffffffffffffffffffffffffffffffff1673ffffffffffffffffffffffffffffffffffffffff168152602001908152602001600020549050919050565b610752610a8a565b61075c6000610e28565b565b60075481565b6000600660009054906101000a900473ffffffffffffffffffffffffffffffffffffffff16905090565b60606001805461079d90611f33565b80601f01602080910402602001604051908101604052809291908181526020018280546107c990611f33565b80156108165780601f106107eb57610100808354040283529160200191610816565b820191906000526020600020905b8154815290600101906020018083116107f957829003601f168201915b5050505050905090565b61083261082b610bf4565b8383610eee565b5050565b61084184848461055c565b61085561084c610bf4565b8585858561105d565b50505050565b6060600073ffffffffffffffffffffffffffffffffffffffff1661087e8361120e565b73ffffffffffffffffffffffffffffffffffffffff16036108d4576040517f08c379a00000000000000000000000000000000000000000000000000000000081526004016108cb90611fe7565b60405180910390fd5b60086108df8361124b565b6040516020016108f0929190612127565b6040516020818303038152906040529050919050565b6000600560008473ffffffffffffffffffffffffffffffffffffffff1673ffffffffffffffffffffffffffffffffffffffff16815260200190815260200160002060008373ffffffffffffffffffffffffffffffffffffffff1673ffffffffffffffffffffffffffffffffffffffff16815260200190815260200160002060009054906101000a900460ff16905092915050565b6109a2610a8a565b600073ffffffffffffffffffffffffffffffffffffffff168173ffffffffffffffffffffffffffffffffffffffff1603610a145760006040517f1e4fbdf7000000000000000000000000000000000000000000000000000000008152600401610a0b9190611b51565b60405180910390fd5b610a1d81610e28565b50565b60007f01ffc9a7000000000000000000000000000000000000000000000000000000007bffffffffffffffffffffffffffffffffffffffffffffffffffffffff1916827bffffffffffffffffffffffffffffffffffffffffffffffffffffffff1916149050919050565b610a92610bf4565b73ffffffffffffffffffffffffffffffffffffffff16610ab0610764565b73ffffffffffffffffffffffffffffffffffffffff1614610b0f57610ad3610bf4565b6040517f118cdaa7000000000000000000000000000000000000000000000000000000008152600401610b069190611b51565b60405180910390fd5b565b610b2b828260405180602001604052806000815250611319565b5050565b600080610b3b8361120e565b9050600073ffffffffffffffffffffffffffffffffffffffff168173ffffffffffffffffffffffffffffffffffffffff1603610bae57826040517f7e273289000000000000000000000000000000000000000000000000000000008152600401610ba59190611c0e565b60405180910390fd5b80915050919050565b60006004600083815260200190815260200160002060009054906101000a900473ffffffffffffffffffffffffffffffffffffffff169050919050565b600033905090565b610c09838383600161133d565b505050565b600080610c1a8461120e565b9050600073ffffffffffffffffffffffffffffffffffffffff168373ffffffffffffffffffffffffffffffffffffffff1614610c5c57610c5b818486611502565b5b600073ffffffffffffffffffffffffffffffffffffffff168173ffffffffffffffffffffffffffffffffffffffff1614610ced57610c9e60008560008061133d565b6001600360008373ffffffffffffffffffffffffffffffffffffffff1673ffffffffffffffffffffffffffffffffffffffff168152602001908152602001600020600082825403925050819055505b600073ffffffffffffffffffffffffffffffffffffffff168573ffffffffffffffffffffffffffffffffffffffff1614610d70576001600360008773ffffffffffffffffffffffffffffffffffffffff1673ffffffffffffffffffffffffffffffffffffffff168152602001908152602001600020600082825401925050819055505b846002600086815260200190815260200160002060006101000a81548173ffffffffffffffffffffffffffffffffffffffff021916908373ffffffffffffffffffffffffffffffffffffffff160217905550838573ffffffffffffffffffffffffffffffffffffffff168273ffffffffffffffffffffffffffffffffffffffff167fddf252ad1be2c89b69c2b068fc378daa952ba7f163c4a11628f55a4df523b3ef60405160405180910390a4809150509392505050565b6000600660009054906101000a900473ffffffffffffffffffffffffffffffffffffffff16905081600660006101000a81548173ffffffffffffffffffffffffffffffffffffffff021916908373ffffffffffffffffffffffffffffffffffffffff1602179055508173ffffffffffffffffffffffffffffffffffffffff168173ffffffffffffffffffffffffffffffffffffffff167f8be0079c531659141344cd1fd0a4f28419497f9722a3daafe3b4186f6b6457e060405160405180910390a35050565b600073ffffffffffffffffffffffffffffffffffffffff168273ffffffffffffffffffffffffffffffffffffffff1603610f5f57816040517f5b08ba18000000000000000000000000000000000000000000000000000000008152600401610f569190611b51565b60405180910390fd5b80600560008573ffffffffffffffffffffffffffffffffffffffff1673ffffffffffffffffffffffffffffffffffffffff16815260200190815260200160002060008473ffffffffffffffffffffffffffffffffffffffff1673ffffffffffffffffffffffffffffffffffffffff16815260200190815260200160002060006101000a81548160ff0219169083151502179055508173ffffffffffffffffffffffffffffffffffffffff168373ffffffffffffffffffffffffffffffffffffffff167f17307eab39ab6107e8899845ad3d59bd9653f200f220920489ca2b5937696c31836040516110509190611987565b60405180910390a3505050565b60008373ffffffffffffffffffffffffffffffffffffffff163b1115611207578273ffffffffffffffffffffffffffffffffffffffff1663150b7a02868685856040518563ffffffff1660e01b81526004016110bc94939291906121ab565b6020604051808303816000875af19250505080156110f857506040513d601f19601f820116820180604052508101906110f5919061220c565b60015b61117c573d8060008114611128576040519150601f19603f3d011682016040523d82523d6000602084013e61112d565b606091505b50600081510361117457836040517f64a0ae9200000000000000000000000000000000000000000000000000000000815260040161116b9190611b51565b60405180910390fd5b805160208201fd5b63150b7a0260e01b7bffffffffffffffffffffffffffffffffffffffffffffffffffffffff1916817bffffffffffffffffffffffffffffffffffffffffffffffffffffffff19161461120557836040517f64a0ae920000000000000000000000000000000000000000000000000000000081526004016111fc9190611b51565b60405180910390fd5b505b5050505050565b60006002600083815260200190815260200160002060009054906101000a900473ffffffffffffffffffffffffffffffffffffffff169050919050565b60606000600161125a846115c6565b01905060008167ffffffffffffffff81111561127957611278611c9f565b5b6040519080825280601f01601f1916602001820160405280156112ab5781602001600182028036833780820191505090505b509050600082602083010190505b60011561130e578080600190039150507f3031323334353637383961626364656600000000000000000000000000000000600a86061a8153600a858161130257611301612239565b5b049450600085036112b9575b819350505050919050565b6113238383611719565b61133861132e610bf4565b600085858561105d565b505050565b80806113765750600073ffffffffffffffffffffffffffffffffffffffff168273ffffffffffffffffffffffffffffffffffffffff1614155b156114aa57600061138684610b2f565b9050600073ffffffffffffffffffffffffffffffffffffffff168373ffffffffffffffffffffffffffffffffffffffff16141580156113f157508273ffffffffffffffffffffffffffffffffffffffff168173ffffffffffffffffffffffffffffffffffffffff1614155b801561140457506114028184610906565b155b1561144657826040517fa9fbf51f00000000000000000000000000000000000000000000000000000000815260040161143d9190611b51565b60405180910390fd5b81156114a857838573ffffffffffffffffffffffffffffffffffffffff168273ffffffffffffffffffffffffffffffffffffffff167f8c5be1e5ebec7d5bd14f71427d1e84f3dd0314c0f7b2291e5b200ac8c7c3b92560405160405180910390a45b505b836004600085815260200190815260200160002060006101000a81548173ffffffffffffffffffffffffffffffffffffffff021916908373ffffffffffffffffffffffffffffffffffffffff16021790555050505050565b61150d838383611812565b6115c157600073ffffffffffffffffffffffffffffffffffffffff168373ffffffffffffffffffffffffffffffffffffffff160361158257806040517f7e2732890000000000000000000000000000000000000000000000000000000081526004016115799190611c0e565b60405180910390fd5b81816040517f177e802f0000000000000000000000000000000000000000000000000000000081526004016115b8929190612268565b60405180910390fd5b505050565b600080600090507a184f03e93ff9f4daa797ed6e38ed64bf6a1f0100000000000000008310611624577a184f03e93ff9f4daa797ed6e38ed64bf6a1f010000000000000000838161161a57611619612239565b5b0492506040810190505b6d04ee2d6d415b85acef81000000008310611661576d04ee2d6d415b85acef8100000000838161165757611656612239565b5b0492506020810190505b662386f26fc10000831061169057662386f26fc10000838161168657611685612239565b5b0492506010810190505b6305f5e10083106116b9576305f5e10083816116af576116ae612239565b5b0492506008810190505b61271083106116de5761271083816116d4576116d3612239565b5b0492506004810190505b6064831061170157606483816116f7576116f6612239565b5b0492506002810190505b600a8310611710576001810190505b80915050919050565b600073ffffffffffffffffffffffffffffffffffffffff168273ffffffffffffffffffffffffffffffffffffffff160361178b5760006040517f64a0ae920000000000000000000000000000000000000000000000000000000081526004016117829190611b51565b60405180910390fd5b600061179983836000610c0e565b9050600073ffffffffffffffffffffffffffffffffffffffff168173ffffffffffffffffffffffffffffffffffffffff161461180d5760006040517f73c6ac6e0000000000000000000000000000000000000000000000000000000081526004016118049190611b51565b60405180910390fd5b505050565b60008073ffffffffffffffffffffffffffffffffffffffff168373ffffffffffffffffffffffffffffffffffffffff16141580156118ca57508273ffffffffffffffffffffffffffffffffffffffff168473ffffffffffffffffffffffffffffffffffffffff16148061188b575061188a8484610906565b5b806118c957508273ffffffffffffffffffffffffffffffffffffffff166118b183610bb7565b73ffffffffffffffffffffffffffffffffffffffff16145b5b90509392505050565b6000604051905090565b600080fd5b600080fd5b60007fffffffff0000000000000000000000000000000000000000000000000000000082169050919050565b61191c816118e7565b811461192757600080fd5b50565b60008135905061193981611913565b92915050565b600060208284031215611955576119546118dd565b5b60006119638482850161192a565b91505092915050565b60008115159050919050565b6119818161196c565b82525050565b600060208201905061199c6000830184611978565b92915050565b600073ffffffffffffffffffffffffffffffffffffffff82169050919050565b60006119cd826119a2565b9050919050565b6119dd816119c2565b81146119e857600080fd5b50565b6000813590506119fa816119d4565b92915050565b600060208284031215611a1657611a156118dd565b5b6000611a24848285016119eb565b91505092915050565b600081519050919050565b600082825260208201905092915050565b60005b83811015611a67578082015181840152602081019050611a4c565b60008484015250505050565b6000601f19601f8301169050919050565b6000611a8f82611a2d565b611a998185611a38565b9350611aa9818560208601611a49565b611ab281611a73565b840191505092915050565b60006020820190508181036000830152611ad78184611a84565b905092915050565b6000819050919050565b611af281611adf565b8114611afd57600080fd5b50565b600081359050611b0f81611ae9565b92915050565b600060208284031215611b2b57611b2a6118dd565b5b6000611b3984828501611b00565b91505092915050565b611b4b816119c2565b82525050565b6000602082019050611b666000830184611b42565b92915050565b60008060408385031215611b8357611b826118dd565b5b6000611b91858286016119eb565b9250506020611ba285828601611b00565b9150509250929050565b600080600060608486031215611bc557611bc46118dd565b5b6000611bd3868287016119eb565b9350506020611be4868287016119eb565b9250506040611bf586828701611b00565b9150509250925092565b611c0881611adf565b82525050565b6000602082019050611c236000830184611bff565b92915050565b611c328161196c565b8114611c3d57600080fd5b50565b600081359050611c4f81611c29565b92915050565b60008060408385031215611c6c57611c6b6118dd565b5b6000611c7a858286016119eb565b9250506020611c8b85828601611c40565b9150509250929050565b600080fd5b600080fd5b7f4e487b7100000000000000000000000000000000000000000000000000000000600052604160045260246000fd5b611cd782611a73565b810181811067ffffffffffffffff82111715611cf657611cf5611c9f565b5b80604052505050565b6000611d096118d3565b9050611d158282611cce565b919050565b600067ffffffffffffffff821115611d3557611d34611c9f565b5b611d3e82611a73565b9050602081019050919050565b82818337600083830152505050565b6000611d6d611d6884611d1a565b611cff565b905082815260208101848484011115611d8957611d88611c9a565b5b611d94848285611d4b565b509392505050565b600082601f830112611db157611db0611c95565b5b8135611dc1848260208601611d5a565b91505092915050565b60008060008060808587031215611de457611de36118dd565b5b6000611df2878288016119eb565b9450506020611e03878288016119eb565b9350506040611e1487828801611b00565b925050606085013567ffffffffffffffff811115611e3557611e346118e2565b5b611e4187828801611d9c565b91505092959194509250565b60008060408385031215611e6457611e636118dd565b5b6000611e72858286016119eb565b9250506020611e83858286016119eb565b9150509250929050565b7f4e487b7100000000000000000000000000000000000000000000000000000000600052601160045260246000fd5b6000611ec782611adf565b91507fffffffffffffffffffffffffffffffffffffffffffffffffffffffffffffffff8203611ef957611ef8611e8d565b5b600182019050919050565b7f4e487b7100000000000000000000000000000000000000000000000000000000600052602260045260246000fd5b60006002820490506001821680611f4b57607f821691505b602082108103611f5e57611f5d611f04565b5b50919050565b6000606082019050611f796000830186611b42565b611f866020830185611bff565b611f936040830184611b42565b949350505050565b7f55524920717565727920666f72206e6f6e6578697374656e7420746f6b656e00600082015250565b6000611fd1601f83611a38565b9150611fdc82611f9b565b602082019050919050565b6000602082019050818103600083015261200081611fc4565b9050919050565b600081905092915050565b60008190508160005260206000209050919050565b6000815461203481611f33565b61203e8186612007565b94506001821660008114612059576001811461206e576120a1565b60ff19831686528115158202860193506120a1565b61207785612012565b60005b838110156120995781548189015260018201915060208101905061207a565b838801955050505b50505092915050565b60006120b582611a2d565b6120bf8185612007565b93506120cf818560208601611a49565b80840191505092915050565b7f2e6a736f6e000000000000000000000000000000000000000000000000000000600082015250565b6000612111600583612007565b915061211c826120db565b600582019050919050565b60006121338285612027565b915061213f82846120aa565b915061214a82612104565b91508190509392505050565b600081519050919050565b600082825260208201905092915050565b600061217d82612156565b6121878185612161565b9350612197818560208601611a49565b6121a081611a73565b840191505092915050565b60006080820190506121c06000830187611b42565b6121cd6020830186611b42565b6121da6040830185611bff565b81810360608301526121ec8184612172565b905095945050505050565b60008151905061220681611913565b92915050565b600060208284031215612222576122216118dd565b5b6000612230848285016121f7565b91505092915050565b7f4e487b7100000000000000000000000000000000000000000000000000000000600052601260045260246000fd5b600060408201905061227d6000830185611b42565b61228a6020830184611bff565b939250505056fea26469706673582212203fd69d755ed0deb534eb0e8ba1675dec3862a9d37652c5b31f2a48bba9c233ac64736f6c634300081c0033",
  "linkReferences": {},
  "deployedLinkReferences": {}
}