{
  "_format": "hh-sol-artifact-1",
  "contractName": "RarePumpkin",
  "sourceName": "contracts/RarePumpkin.sol",
  "abi": [
    {
      "inputs": [],
      "stateMutability": "nonpayable",
      "type": "constructor"
    },
    {
      "inputs": [
        {
          "internalType": "address",
          "name": "sender",
          "type": "address"
        },
        {
          "internalType": "uint256",
          "name": "tokenId",
          "type": "uint256"
        },
        {
          "internalType": "address",
          "name": "owner",
          "type": "address"
        }
      ],
      "name": "ERC721IncorrectOwner",
      "type": "error"
    },
    {
      "inputs": [
        {
          "internalType": "address",
          "name": "operator",
          "type": "address"
        },
        {
          "internalType": "uint256",
          "name": "tokenId",
          "type": "uint256"
        }
      ],
      "name": "ERC721InsufficientApproval",
      "type": "error"
    },
    {
      "inputs": [
        {
          "internalType": "address",
          "name": "approver",
          "type": "address"
        }
      ],
      "name": "ERC721InvalidApprover",
      "type": "error"
    },
    {
      "inputs": [
        {
          "internalType": "address",
          "name": "operator",
          "type": "address"
        }
      ],
      "name": "ERC721InvalidOperator",
      "type": "error"
    },
    {
      "inputs": [
        {
          "internalType": "address",
          "name": "owner",
          "type": "address"
        }
      ],
      "name": "ERC721InvalidOwner",
      "type": "error"
    },
    {
      "inputs": [
        {
          "internalType": "address",
          "name": "receiver",
          "type": "address"
        }
      ],
      "name": "ERC721InvalidReceiver",
      "type": "error"
    },
    {
      "inputs": [
        {
          "internalType": "address",
          "name": "sender",
          "type": "address"
        }
      ],
      "name": "ERC721InvalidSender",
      "type": "error"
    },
    {
      "inputs": [
        {
          "internalType": "uint256",
          "name": "tokenId",
          "type": "uint256"
        }
      ],
      "name": "ERC721NonexistentToken",
      "type": "error"
    },
    {
      "inputs": [
        {
          "internalType": "address",
          "name": "owner",
          "type": "address"
        }
      ],
      "name": "OwnableInvalidOwner",
      "type": "error"
    },
    {
      "inputs": [
        {
          "internalType": "address",
          "name": "account",
          "type": "address"
        }
      ],
      "name": "OwnableUnauthorizedAccount",
      "type": "error"
    },
    {
      "anonymous": false,
      "inputs": [
        {
          "indexed": true,
          "internalType": "address",
          "name": "owner",
          "type": "address"
        },
        {
          "indexed": true,
          "internalType": "address",
          "name": "approved",
          "type": "address"
        },
        {
          "indexed": true,
          "internalType": "uint256",
          "name": "tokenId",
          "type": "uint256"
        }
      ],
      "name": "Approval",
      "type": "event"
    },
    {
      "anonymous": false,
      "inputs": [
        {
          "indexed": true,
          "internalType": "address",
          "name": "owner",
          "type": "address"
        },
        {
          "indexed": true,
          "internalType": "address",
          "name": "operator",
          "type": "address"
        },
        {
          "indexed": false,
          "internalType": "bool",
          "name": "approved",
          "type": "bool"
        }
      ],
      "name": "ApprovalForAll",
      "type": "event"
    },
    {
      "anonymous": false,
      "inputs": [
        {
          "indexed": true,
          "internalType": "address",
          "name": "previousOwner",
          "type": "address"
        },
        {
          "indexed": true,
          "internalType": "address",
          "name": "newOwner",
          "type": "address"
        }
      ],
      "name": "OwnershipTransferred",
      "type": "event"
    },
    {
      "anonymous": false,
      "inputs": [
        {
          "indexed": true,
          "internalType": "address",
          "name": "from",
          "type": "address"
        },
        {
          "indexed": true,
          "internalType": "address",
          "name": "to",
          "type": "address"
        },
        {
          "indexed": true,
          "internalType": "uint256",
          "name": "tokenId",
          "type": "uint256"
        }
      ],
      "name": "Transfer",
      "type": "event"
    },
    {
      "inputs": [
        {
          "internalType": "address",
          "name": "to",
          "type": "address"
        },
        {
          "internalType": "uint256",
          "name": "tokenId",
          "type": "uint256"
        }
      ],
      "name": "approve",
      "outputs": [],
      "stateMutability": "nonpayable",
      "type": "function"
    },
    {
      "inputs": [
        {
          "internalType": "address",
          "name": "owner",
          "type": "address"
        }
      ],
      "name": "balanceOf",
      "outputs": [
        {
          "internalType": "uint256",
          "name": "",
          "type": "uint256"
        }
      ],
      "stateMutability": "view",
      "type": "function"
    },
    {
      "inputs": [
        {
          "internalType": "uint256",
          "name": "tokenId",
          "type": "uint256"
        }
      ],
      "name": "getApproved",
      "outputs": [
        {
          "internalType": "address",
          "name": "",
          "type": "address"
        }
      ],
      "stateMutability": "view",
      "type": "function"
    },
    {
      "inputs": [
        {
          "internalType": "address",
          "name": "owner",
          "type": "address"
        },
        {
          "internalType": "address",
          "name": "operator",
          "type": "address"
        }
      ],
      "name": "isApprovedForAll",
      "outputs": [
        {
          "internalType": "bool",
          "name": "",
          "type": "bool"
        }
      ],
      "stateMutability": "view",
      "type": "function"
    },
    {
      "inputs": [
        {
          "internalType": "address",
          "name": "to",
          "type": "address"
        }
      ],
      "name": "mintRarePumpkin",
      "outputs": [],
      "stateMutability": "nonpayable",
      "type": "function"
    },
    {
      "inputs": [],
      "name": "name",
      "outputs": [
        {
          "internalType": "string",
          "name": "",
          "type": "string"
        }
      ],
      "stateMutability": "view",
      "type": "function"
    },
    {
      "inputs": [],
      "name": "nextTokenId",
      "outputs": [
        {
          "internalType": "uint256",
          "name": "",
          "type": "uint256"
        }
      ],
      "stateMutability": "view",
      "type": "function"
    },
    {
      "inputs": [],
      "name": "owner",
      "outputs": [
        {
          "internalType": "address",
          "name": "",
          "type": "address"
        }
      ],
      "stateMutability": "view",
      "type": "function"
    },
    {
      "inputs": [
        {
          "internalType": "uint256",
          "name": "tokenId",
          "type": "uint256"
        }
      ],
      "name": "ownerOf",
      "outputs": [
        {
          "internalType": "address",
          "name": "",
          "type": "address"
        }
      ],
      "stateMutability": "view",
      "type": "function"
    },
    {
      "inputs": [],
      "name": "renounceOwnership",
      "outputs": [],
      "stateMutability": "nonpayable",
      "type": "function"
    },
    {
      "inputs": [
        {
          "internalType": "address",
          "name": "from",
          "type": "address"
        },
        {
          "internalType": "address",
          "name": "to",
          "type": "address"
        },
        {
          "internalType": "uint256",
          "name": "tokenId",
          "type": "uint256"
        }
      ],
      "name": "safeTransferFrom",
      "outputs": [],
      "stateMutability": "nonpayable",
      "type": "function"
    },
    {
      "inputs": [
        {
          "internalType": "address",
          "name": "from",
          "type": "address"
        },
        {
          "internalType": "address",
          "name": "to",
          "type": "address"
        },
        {
          "internalType": "uint256",
          "name": "tokenId",
          "type": "uint256"
        },
        {
          "internalType": "bytes",
          "name": "data",
          "type": "bytes"
        }
      ],
      "name": "safeTransferFrom",
      "outputs": [],
      "stateMutability": "nonpayable",
      "type": "function"
    },
    {
      "inputs": [
        {
          "internalType": "address",
          "name": "operator",
          "type": "address"
        },
        {
          "internalType": "bool",
          "name": "approved",
          "type": "bool"
        }
      ],
      "name": "setApprovalForAll",
      "outputs": [],
      "stateMutability": "nonpayable",
      "type": "function"
    },
    {
      "inputs": [
        {
          "internalType": "bytes4",
          "name": "interfaceId",
          "type": "bytes4"
        }
      ],
      "name": "supportsInterface",
      "outputs": [
        {
          "internalType": "bool",
          "name": "",
          "type": "bool"
        }
      ],
      "stateMutability": "view",
      "type": "function"
    },
    {
      "inputs": [],
      "name": "symbol",
      "outputs": [
        {
          "internalType": "string",
          "name": "",
          "type": "string"
        }
      ],
      "stateMutability": "view",
      "type": "function"
    },
    {
      "inputs": [
        {
          "internalType": "uint256",
          "name": "tokenId",
          "type": "uint256"
        }
      ],
      "name": "tokenURI",
      "outputs": [
        {
          "internalType": "string",
          "name": "",
          "type": "string"
        }
      ],
      "stateMutability": "view",
      "type": "function"
    },
    {
      "inputs": [
        {
          "internalType": "address",
          "name": "from",
          "type": "address"
        },
        {
          "internalType": "address",
          "name": "to",
          "type": "address"
        },
        {
          "internalType": "uint256",
          "name": "tokenId",
          "type": "uint256"
        }
      ],
      "name": "transferFrom",
      "outputs": [],
      "stateMutability": "nonpayable",
      "type": "function"
    },
    {
      "inputs": [
        {
          "internalType": "address",
          "name": "newOwner",
          "type": "address"
        }
      ],
      "name": "transferOwnership",
      "outputs": [],
      "stateMutability": "nonpayable",
      "type": "function"
    }
  ],
  "bytecode": "0x608060405234801561001057600080fd5b50336040518060400160405280600c81526020017f526172652050756d706b696e00000000000000000000000000000000000000008152506040518060400160405280600581526020017f5250554d50000000000000000000000000000000000000000000000000000000815250816000908161008d919061043d565b50806001908161009d919061043d565b505050600073ffffffffffffffffffffffffffffffffffffffff168173ffffffffffffffffffffffffffffffffffffffff16036101125760006040517f1e4fbdf70000000000000000000000000000000000000000000000000000000081526004016101099190610550565b60405180910390fd5b6101218161012760201b60201c565b5061056b565b6000600660009054906101000a900473ffffffffffffffffffffffffffffffffffffffff16905081600660006101000a81548173ffffffffffffffffffffffffffffffffffffffff021916908373ffffffffffffffffffffffffffffffffffffffff1602179055508173ffffffffffffffffffffffffffffffffffffffff168173ffffffffffffffffffffffffffffffffffffffff167f8be0079c531659141344cd1fd0a4f28419497f9722a3daafe3b4186f6b6457e060405160405180910390a35050565b600081519050919050565b7f4e487b7100000000000000000000000000000000000000000000000000000000600052604160045260246000fd5b7f4e487b7100000000000000000000000000000000000000000000000000000000600052602260045260246000fd5b6000600282049050600182168061026e57607f821691505b60208210810361028157610280610227565b5b50919050565b60008190508160005260206000209050919050565b60006020601f8301049050919050565b600082821b905092915050565b6000600883026102e97fffffffffffffffffffffffffffffffffffffffffffffffffffffffffffffffff826102ac565b6102f386836102ac565b95508019841693508086168417925050509392505050565b6000819050919050565b6000819050919050565b600061033a6103356103308461030b565b610315565b61030b565b9050919050565b6000819050919050565b6103548361031f565b61036861036082610341565b8484546102b9565b825550505050565b600090565b61037d610370565b61038881848461034b565b505050565b5b818110156103ac576103a1600082610375565b60018101905061038e565b5050565b601f8211156103f1576103c281610287565b6103cb8461029c565b810160208510156103da578190505b6103ee6103e68561029c565b83018261038d565b50505b505050565b600082821c905092915050565b6000610414600019846008026103f6565b1980831691505092915050565b600061042d8383610403565b9150826002028217905092915050565b610446826101ed565b67ffffffffffffffff81111561045f5761045e6101f8565b5b6104698254610256565b6104748282856103b0565b600060209050601f8311600181146104a75760008415610495578287015190505b61049f8582610421565b865550610507565b601f1984166104b586610287565b60005b828110156104dd578489015182556001820191506020850194506020810190506104b8565b868310156104fa57848901516104f6601f891682610403565b8355505b6001600288020188555050505b505050505050565b600073ffffffffffffffffffffffffffffffffffffffff82169050919050565b600061053a8261050f565b9050919050565b61054a8161052f565b82525050565b60006020820190506105656000830184610541565b92915050565b6121418061057a6000396000f3fe608060405234801561001057600080fd5b50600436106101165760003560e01c8063715018a6116100a2578063a22cb46511610071578063a22cb465146102cd578063b88d4fde146102e9578063c87b56dd14610305578063e985e9c514610335578063f2fde38b1461036557610116565b8063715018a61461026957806375794a3c146102735780638da5cb5b1461029157806395d89b41146102af57610116565b8063095ea7b3116100e9578063095ea7b3146101b557806323b872dd146101d157806342842e0e146101ed5780636352211e1461020957806370a082311461023957610116565b806301ffc9a71461011b57806303ddc14d1461014b57806306fdde0314610167578063081812fc14610185575b600080fd5b61013560048036038101906101309190611914565b610381565b604051610142919061195c565b60405180910390f35b610165600480360381019061016091906119d5565b610463565b005b61016f610498565b60405161017c9190611a92565b60405180910390f35b61019f600480360381019061019a9190611aea565b61052a565b6040516101ac9190611b26565b60405180910390f35b6101cf60048036038101906101ca9190611b41565b610546565b005b6101eb60048036038101906101e69190611b81565b61055c565b005b61020760048036038101906102029190611b81565b61065e565b005b610223600480360381019061021e9190611aea565b61067e565b6040516102309190611b26565b60405180910390f35b610253600480360381019061024e91906119d5565b610690565b6040516102609190611be3565b60405180910390f35b61027161074a565b005b61027b61075e565b6040516102889190611be3565b60405180910390f35b610299610764565b6040516102a69190611b26565b60405180910390f35b6102b761078e565b6040516102c49190611a92565b60405180910390f35b6102e760048036038101906102e29190611c2a565b610820565b005b61030360048036038101906102fe9190611d9f565b610836565b005b61031f600480360381019061031a9190611aea565b61085b565b60405161032c9190611a92565b60405180910390f35b61034f600480360381019061034a9190611e22565b6108c4565b60405161035c919061195c565b60405180910390f35b61037f600480360381019061037a91906119d5565b610958565b005b60007f80ac58cd000000000000000000000000000000000000000000000000000000007bffffffffffffffffffffffffffffffffffffffffffffffffffffffff1916827bffffffffffffffffffffffffffffffffffffffffffffffffffffffff1916148061044c57507f5b5e139f000000000000000000000000000000000000000000000000000000007bffffffffffffffffffffffffffffffffffffffffffffffffffffffff1916827bffffffffffffffffffffffffffffffffffffffffffffffffffffffff1916145b8061045c575061045b826109de565b5b9050919050565b61046b610a48565b600060075490506007600081548092919061048590611e91565b91905055506104948282610acf565b5050565b6060600080546104a790611f08565b80601f01602080910402602001604051908101604052809291908181526020018280546104d390611f08565b80156105205780601f106104f557610100808354040283529160200191610520565b820191906000526020600020905b81548152906001019060200180831161050357829003601f168201915b5050505050905090565b600061053582610aed565b5061053f82610b75565b9050919050565b6105588282610553610bb2565b610bba565b5050565b600073ffffffffffffffffffffffffffffffffffffffff168273ffffffffffffffffffffffffffffffffffffffff16036105ce5760006040517f64a0ae920000000000000000000000000000000000000000000000000000000081526004016105c59190611b26565b60405180910390fd5b60006105e283836105dd610bb2565b610bcc565b90508373ffffffffffffffffffffffffffffffffffffffff168173ffffffffffffffffffffffffffffffffffffffff1614610658578382826040517f64283d7b00000000000000000000000000000000000000000000000000000000815260040161064f93929190611f39565b60405180910390fd5b50505050565b61067983838360405180602001604052806000815250610836565b505050565b600061068982610aed565b9050919050565b60008073ffffffffffffffffffffffffffffffffffffffff168273ffffffffffffffffffffffffffffffffffffffff16036107035760006040517f89c62b640000000000000000000000000000000000000000000000000000000081526004016106fa9190611b26565b60405180910390fd5b600360008373ffffffffffffffffffffffffffffffffffffffff1673ffffffffffffffffffffffffffffffffffffffff168152602001908152602001600020549050919050565b610752610a48565b61075c6000610de6565b565b60075481565b6000600660009054906101000a900473ffffffffffffffffffffffffffffffffffffffff16905090565b60606001805461079d90611f08565b80601f01602080910402602001604051908101604052809291908181526020018280546107c990611f08565b80156108165780601f106107eb57610100808354040283529160200191610816565b820191906000526020600020905b8154815290600101906020018083116107f957829003601f168201915b5050505050905090565b61083261082b610bb2565b8383610eac565b5050565b61084184848461055c565b61085561084c610bb2565b8585858561101b565b50505050565b606061086682610aed565b5060006108716111cc565b9050600081511161089157604051806020016040528060008152506108bc565b8061089b846111e3565b6040516020016108ac929190611fac565b6040516020818303038152906040525b915050919050565b6000600560008473ffffffffffffffffffffffffffffffffffffffff1673ffffffffffffffffffffffffffffffffffffffff16815260200190815260200160002060008373ffffffffffffffffffffffffffffffffffffffff1673ffffffffffffffffffffffffffffffffffffffff16815260200190815260200160002060009054906101000a900460ff16905092915050565b610960610a48565b600073ffffffffffffffffffffffffffffffffffffffff168173ffffffffffffffffffffffffffffffffffffffff16036109d25760006040517f1e4fbdf70000000000000000000000000000000000000000000000000000000081526004016109c99190611b26565b60405180910390fd5b6109db81610de6565b50565b60007f01ffc9a7000000000000000000000000000000000000000000000000000000007bffffffffffffffffffffffffffffffffffffffffffffffffffffffff1916827bffffffffffffffffffffffffffffffffffffffffffffffffffffffff1916149050919050565b610a50610bb2565b73ffffffffffffffffffffffffffffffffffffffff16610a6e610764565b73ffffffffffffffffffffffffffffffffffffffff1614610acd57610a91610bb2565b6040517f118cdaa7000000000000000000000000000000000000000000000000000000008152600401610ac49190611b26565b60405180910390fd5b565b610ae98282604051806020016040528060008152506112b1565b5050565b600080610af9836112d5565b9050600073ffffffffffffffffffffffffffffffffffffffff168173ffffffffffffffffffffffffffffffffffffffff1603610b6c57826040517f7e273289000000000000000000000000000000000000000000000000000000008152600401610b639190611be3565b60405180910390fd5b80915050919050565b60006004600083815260200190815260200160002060009054906101000a900473ffffffffffffffffffffffffffffffffffffffff169050919050565b600033905090565b610bc78383836001611312565b505050565b600080610bd8846112d5565b9050600073ffffffffffffffffffffffffffffffffffffffff168373ffffffffffffffffffffffffffffffffffffffff1614610c1a57610c198184866114d7565b5b600073ffffffffffffffffffffffffffffffffffffffff168173ffffffffffffffffffffffffffffffffffffffff1614610cab57610c5c600085600080611312565b6001600360008373ffffffffffffffffffffffffffffffffffffffff1673ffffffffffffffffffffffffffffffffffffffff168152602001908152602001600020600082825403925050819055505b600073ffffffffffffffffffffffffffffffffffffffff168573ffffffffffffffffffffffffffffffffffffffff1614610d2e576001600360008773ffffffffffffffffffffffffffffffffffffffff1673ffffffffffffffffffffffffffffffffffffffff168152602001908152602001600020600082825401925050819055505b846002600086815260200190815260200160002060006101000a81548173ffffffffffffffffffffffffffffffffffffffff021916908373ffffffffffffffffffffffffffffffffffffffff160217905550838573ffffffffffffffffffffffffffffffffffffffff168273ffffffffffffffffffffffffffffffffffffffff167fddf252ad1be2c89b69c2b068fc378daa952ba7f163c4a11628f55a4df523b3ef60405160405180910390a4809150509392505050565b6000600660009054906101000a900473ffffffffffffffffffffffffffffffffffffffff16905081600660006101000a81548173ffffffffffffffffffffffffffffffffffffffff021916908373ffffffffffffffffffffffffffffffffffffffff1602179055508173ffffffffffffffffffffffffffffffffffffffff168173ffffffffffffffffffffffffffffffffffffffff167f8be0079c531659141344cd1fd0a4f28419497f9722a3daafe3b4186f6b6457e060405160405180910390a35050565b600073ffffffffffffffffffffffffffffffffffffffff168273ffffffffffffffffffffffffffffffffffffffff1603610f1d57816040517f5b08ba18000000000000000000000000000000000000000000000000000000008152600401610f149190611b26565b60405180910390fd5b80600560008573ffffffffffffffffffffffffffffffffffffffff1673ffffffffffffffffffffffffffffffffffffffff16815260200190815260200160002060008473ffffffffffffffffffffffffffffffffffffffff1673ffffffffffffffffffffffffffffffffffffffff16815260200190815260200160002060006101000a81548160ff0219169083151502179055508173ffffffffffffffffffffffffffffffffffffffff168373ffffffffffffffffffffffffffffffffffffffff167f17307eab39ab6107e8899845ad3d59bd9653f200f220920489ca2b5937696c318360405161100e919061195c565b60405180910390a3505050565b60008373ffffffffffffffffffffffffffffffffffffffff163b11156111c5578273ffffffffffffffffffffffffffffffffffffffff1663150b7a02868685856040518563ffffffff1660e01b815260040161107a9493929190612025565b6020604051808303816000875af19250505080156110b657506040513d601f19601f820116820180604052508101906110b39190612086565b60015b61113a573d80600081146110e6576040519150601f19603f3d011682016040523d82523d6000602084013e6110eb565b606091505b50600081510361113257836040517f64a0ae920000000000000000000000000000000000000000000000000000000081526004016111299190611b26565b60405180910390fd5b805160208201fd5b63150b7a0260e01b7bffffffffffffffffffffffffffffffffffffffffffffffffffffffff1916817bffffffffffffffffffffffffffffffffffffffffffffffffffffffff1916146111c357836040517f64a0ae920000000000000000000000000000000000000000000000000000000081526004016111ba9190611b26565b60405180910390fd5b505b5050505050565b606060405180602001604052806000815250905090565b6060600060016111f28461159b565b01905060008167ffffffffffffffff81111561121157611210611c74565b5b6040519080825280601f01601f1916602001820160405280156112435781602001600182028036833780820191505090505b509050600082602083010190505b6001156112a6578080600190039150507f3031323334353637383961626364656600000000000000000000000000000000600a86061a8153600a858161129a576112996120b3565b5b04945060008503611251575b819350505050919050565b6112bb83836116ee565b6112d06112c6610bb2565b600085858561101b565b505050565b60006002600083815260200190815260200160002060009054906101000a900473ffffffffffffffffffffffffffffffffffffffff169050919050565b808061134b5750600073ffffffffffffffffffffffffffffffffffffffff168273ffffffffffffffffffffffffffffffffffffffff1614155b1561147f57600061135b84610aed565b9050600073ffffffffffffffffffffffffffffffffffffffff168373ffffffffffffffffffffffffffffffffffffffff16141580156113c657508273ffffffffffffffffffffffffffffffffffffffff168173ffffffffffffffffffffffffffffffffffffffff1614155b80156113d957506113d781846108c4565b155b1561141b57826040517fa9fbf51f0000000000000000000000000000000000000000000000000000000081526004016114129190611b26565b60405180910390fd5b811561147d57838573ffffffffffffffffffffffffffffffffffffffff168273ffffffffffffffffffffffffffffffffffffffff167f8c5be1e5ebec7d5bd14f71427d1e84f3dd0314c0f7b2291e5b200ac8c7c3b92560405160405180910390a45b505b836004600085815260200190815260200160002060006101000a81548173ffffffffffffffffffffffffffffffffffffffff021916908373ffffffffffffffffffffffffffffffffffffffff16021790555050505050565b6114e28383836117e7565b61159657600073ffffffffffffffffffffffffffffffffffffffff168373ffffffffffffffffffffffffffffffffffffffff160361155757806040517f7e27328900000000000000000000000000000000000000000000000000000000815260040161154e9190611be3565b60405180910390fd5b81816040517f177e802f00000000000000000000000000000000000000000000000000000000815260040161158d9291906120e2565b60405180910390fd5b505050565b600080600090507a184f03e93ff9f4daa797ed6e38ed64bf6a1f01000000000000000083106115f9577a184f03e93ff9f4daa797ed6e38ed64bf6a1f01000000000000000083816115ef576115ee6120b3565b5b0492506040810190505b6d04ee2d6d415b85acef81000000008310611636576d04ee2d6d415b85acef8100000000838161162c5761162b6120b3565b5b0492506020810190505b662386f26fc10000831061166557662386f26fc10000838161165b5761165a6120b3565b5b0492506010810190505b6305f5e100831061168e576305f5e1008381611684576116836120b3565b5b0492506008810190505b61271083106116b35761271083816116a9576116a86120b3565b5b0492506004810190505b606483106116d657606483816116cc576116cb6120b3565b5b0492506002810190505b600a83106116e5576001810190505b80915050919050565b600073ffffffffffffffffffffffffffffffffffffffff168273ffffffffffffffffffffffffffffffffffffffff16036117605760006040517f64a0ae920000000000000000000000000000000000000000000000000000000081526004016117579190611b26565b60405180910390fd5b600061176e83836000610bcc565b9050600073ffffffffffffffffffffffffffffffffffffffff168173ffffffffffffffffffffffffffffffffffffffff16146117e25760006040517f73c6ac6e0000000000000000000000000000000000000000000000000000000081526004016117d99190611b26565b60405180910390fd5b505050565b60008073ffffffffffffffffffffffffffffffffffffffff168373ffffffffffffffffffffffffffffffffffffffff161415801561189f57508273ffffffffffffffffffffffffffffffffffffffff168473ffffffffffffffffffffffffffffffffffffffff161480611860575061185f84846108c4565b5b8061189e57508273ffffffffffffffffffffffffffffffffffffffff1661188683610b75565b73ffffffffffffffffffffffffffffffffffffffff16145b5b90509392505050565b6000604051905090565b600080fd5b600080fd5b60007fffffffff0000000000000000000000000000000000000000000000000000000082169050919050565b6118f1816118bc565b81146118fc57600080fd5b50565b60008135905061190e816118e8565b92915050565b60006020828403121561192a576119296118b2565b5b6000611938848285016118ff565b91505092915050565b60008115159050919050565b61195681611941565b82525050565b6000602082019050611971600083018461194d565b92915050565b600073ffffffffffffffffffffffffffffffffffffffff82169050919050565b60006119a282611977565b9050919050565b6119b281611997565b81146119bd57600080fd5b50565b6000813590506119cf816119a9565b92915050565b6000602082840312156119eb576119ea6118b2565b5b60006119f9848285016119c0565b91505092915050565b600081519050919050565b600082825260208201905092915050565b60005b83811015611a3c578082015181840152602081019050611a21565b60008484015250505050565b6000601f19601f8301169050919050565b6000611a6482611a02565b611a6e8185611a0d565b9350611a7e818560208601611a1e565b611a8781611a48565b840191505092915050565b60006020820190508181036000830152611aac8184611a59565b905092915050565b6000819050919050565b611ac781611ab4565b8114611ad257600080fd5b50565b600081359050611ae481611abe565b92915050565b600060208284031215611b0057611aff6118b2565b5b6000611b0e84828501611ad5565b91505092915050565b611b2081611997565b82525050565b6000602082019050611b3b6000830184611b17565b92915050565b60008060408385031215611b5857611b576118b2565b5b6000611b66858286016119c0565b9250506020611b7785828601611ad5565b9150509250929050565b600080600060608486031215611b9a57611b996118b2565b5b6000611ba8868287016119c0565b9350506020611bb9868287016119c0565b9250506040611bca86828701611ad5565b9150509250925092565b611bdd81611ab4565b82525050565b6000602082019050611bf86000830184611bd4565b92915050565b611c0781611941565b8114611c1257600080fd5b50565b600081359050611c2481611bfe565b92915050565b60008060408385031215611c4157611c406118b2565b5b6000611c4f858286016119c0565b9250506020611c6085828601611c15565b9150509250929050565b600080fd5b600080fd5b7f4e487b7100000000000000000000000000000000000000000000000000000000600052604160045260246000fd5b611cac82611a48565b810181811067ffffffffffffffff82111715611ccb57611cca611c74565b5b80604052505050565b6000611cde6118a8565b9050611cea8282611ca3565b919050565b600067ffffffffffffffff821115611d0a57611d09611c74565b5b611d1382611a48565b9050602081019050919050565b82818337600083830152505050565b6000611d42611d3d84611cef565b611cd4565b905082815260208101848484011115611d5e57611d5d611c6f565b5b611d69848285611d20565b509392505050565b600082601f830112611d8657611d85611c6a565b5b8135611d96848260208601611d2f565b91505092915050565b60008060008060808587031215611db957611db86118b2565b5b6000611dc7878288016119c0565b9450506020611dd8878288016119c0565b9350506040611de987828801611ad5565b925050606085013567ffffffffffffffff811115611e0a57611e096118b7565b5b611e1687828801611d71565b91505092959194509250565b60008060408385031215611e3957611e386118b2565b5b6000611e47858286016119c0565b9250506020611e58858286016119c0565b9150509250929050565b7f4e487b7100000000000000000000000000000000000000000000000000000000600052601160045260246000fd5b6000611e9c82611ab4565b91507fffffffffffffffffffffffffffffffffffffffffffffffffffffffffffffffff8203611ece57611ecd611e62565b5b600182019050919050565b7f4e487b7100000000000000000000000000000000000000000000000000000000600052602260045260246000fd5b60006002820490506001821680611f2057607f821691505b602082108103611f3357611f32611ed9565b5b50919050565b6000606082019050611f4e6000830186611b17565b611f5b6020830185611bd4565b611f686040830184611b17565b949350505050565b600081905092915050565b6000611f8682611a02565b611f908185611f70565b9350611fa0818560208601611a1e565b80840191505092915050565b6000611fb88285611f7b565b9150611fc48284611f7b565b91508190509392505050565b600081519050919050565b600082825260208201905092915050565b6000611ff782611fd0565b6120018185611fdb565b9350612011818560208601611a1e565b61201a81611a48565b840191505092915050565b600060808201905061203a6000830187611b17565b6120476020830186611b17565b6120546040830185611bd4565b81810360608301526120668184611fec565b905095945050505050565b600081519050612080816118e8565b92915050565b60006020828403121561209c5761209b6118b2565b5b60006120aa84828501612071565b91505092915050565b7f4e487b7100000000000000000000000000000000000000000000000000000000600052601260045260246000fd5b60006040820190506120f76000830185611b17565b6121046020830184611bd4565b939250505056fea2646970667358221220048c51056bf0e7d2428e483a43770bb658c5509724f14128f5e141ee793250c464736f6c634300081c0033",
  "linkReferences": {},
  "deployedLinkReferences": {}
}